{
  "contractName": "Lottery",
  "abi": [
    {
      "anonymous": false,
      "inputs": [
        {
          "indexed": true,
          "internalType": "address",
          "name": "previousOwner",
          "type": "address"
        },
        {
          "indexed": true,
          "internalType": "address",
          "name": "newOwner",
          "type": "address"
        }
      ],
      "name": "OwnershipTransferred",
      "type": "event"
    },
    {
      "inputs": [],
      "name": "owner",
      "outputs": [
        {
          "internalType": "address",
          "name": "",
          "type": "address"
        }
      ],
      "stateMutability": "view",
      "type": "function",
      "constant": true
    },
    {
      "inputs": [],
      "name": "renounceOwnership",
      "outputs": [],
      "stateMutability": "nonpayable",
      "type": "function"
    },
    {
      "inputs": [
        {
          "internalType": "address",
          "name": "newOwner",
          "type": "address"
        }
      ],
      "name": "transferOwnership",
      "outputs": [],
      "stateMutability": "nonpayable",
      "type": "function"
    },
    {
      "inputs": [],
      "name": "initialize",
      "outputs": [],
      "stateMutability": "nonpayable",
      "type": "function"
    },
    {
      "inputs": [],
      "name": "play",
      "outputs": [],
      "stateMutability": "payable",
      "type": "function",
      "payable": true
    },
    {
      "inputs": [],
      "name": "runLottery",
      "outputs": [],
      "stateMutability": "nonpayable",
      "type": "function"
    },
    {
      "inputs": [],
      "name": "refund",
      "outputs": [],
      "stateMutability": "nonpayable",
      "type": "function"
    },
    {
      "inputs": [],
      "name": "getBalance",
      "outputs": [
        {
          "internalType": "uint256",
          "name": "",
          "type": "uint256"
        }
      ],
      "stateMutability": "view",
      "type": "function",
      "constant": true
    },
    {
      "inputs": [
        {
          "internalType": "uint256",
          "name": "_round",
          "type": "uint256"
        }
      ],
      "name": "getPlayersCount",
      "outputs": [
        {
          "internalType": "uint256",
          "name": "",
          "type": "uint256"
        }
      ],
      "stateMutability": "view",
      "type": "function",
      "constant": true
    },
    {
      "inputs": [
        {
          "internalType": "uint256",
          "name": "_round",
          "type": "uint256"
        }
      ],
      "name": "getPlayers",
      "outputs": [
        {
          "internalType": "address payable[]",
          "name": "",
          "type": "address[]"
        }
      ],
      "stateMutability": "view",
      "type": "function",
      "constant": true
    },
    {
      "inputs": [
        {
          "internalType": "uint256",
          "name": "_round",
          "type": "uint256"
        }
      ],
      "name": "getWinner",
      "outputs": [
        {
          "internalType": "address",
          "name": "",
          "type": "address"
        }
      ],
      "stateMutability": "view",
      "type": "function",
      "constant": true
    },
    {
      "inputs": [],
      "name": "getRound",
      "outputs": [
        {
          "internalType": "uint256",
          "name": "",
          "type": "uint256"
        }
      ],
      "stateMutability": "view",
      "type": "function",
      "constant": true
    }
  ],
  "bytecode": "0x608060405234801561001057600080fd5b5061166c806100206000396000f3fe6080604052600436106100a75760003560e01c80638129fc1c116100645780638129fc1c146101965780638da5cb5b146101ad57806393e84cd9146101d85780639f8743f7146101e2578063eca1ada71461020d578063f2fde38b1461024a576100a7565b806312065fe0146100ac5780634129b2c9146100d7578063460e2049146101145780635674a3ed14610151578063590e1ae314610168578063715018a61461017f575b600080fd5b3480156100b857600080fd5b506100c1610273565b6040516100ce9190611234565b60405180910390f35b3480156100e357600080fd5b506100fe60048036038101906100f99190610f94565b61027b565b60405161010b9190611177565b60405180910390f35b34801561012057600080fd5b5061013b60048036038101906101369190610f94565b6102bb565b6040516101489190611192565b60405180910390f35b34801561015d57600080fd5b5061016661035f565b005b34801561017457600080fd5b5061017d61065c565b005b34801561018b57600080fd5b506101946108b2565b005b3480156101a257600080fd5b506101ab61093a565b005b3480156101b957600080fd5b506101c2610a76565b6040516101cf9190611177565b60405180910390f35b6101e0610aa0565b005b3480156101ee57600080fd5b506101f7610b36565b6040516102049190611234565b60405180910390f35b34801561021957600080fd5b50610234600480360381019061022f9190610f94565b610b40565b6040516102419190611234565b60405180910390f35b34801561025657600080fd5b50610271600480360381019061026c9190610f42565b610b63565b005b600047905090565b60006067600083815260200190815260200160002060010160009054906101000a900473ffffffffffffffffffffffffffffffffffffffff169050919050565b60606067600083815260200190815260200160002060000180548060200260200160405190810160405280929190818152602001828054801561035357602002820191906000526020600020905b8160009054906101000a900473ffffffffffffffffffffffffffffffffffffffff1673ffffffffffffffffffffffffffffffffffffffff1681526020019060010190808311610309575b50505050509050919050565b610367610c5b565b73ffffffffffffffffffffffffffffffffffffffff16610385610a76565b73ffffffffffffffffffffffffffffffffffffffff16146103db576040517f08c379a00000000000000000000000000000000000000000000000000000000081526004016103d2906111f4565b60405180910390fd5b60006067600060665481526020019081526020016000209050600181600001805490501161040857600080fd5b6000600242836000018054905060405160200161042692919061114b565b6040516020818303038152906040526040516104429190611134565b602060405180830381855afa15801561045f573d6000803e3d6000fd5b5050506040513d601f19601f820116820180604052508101906104829190610f6b565b60001c9050600082600001805490508261049c919061144c565b90508260000181815481106104da577f4e487b7100000000000000000000000000000000000000000000000000000000600052603260045260246000fd5b9060005260206000200160009054906101000a900473ffffffffffffffffffffffffffffffffffffffff168360010160006101000a81548173ffffffffffffffffffffffffffffffffffffffff021916908373ffffffffffffffffffffffffffffffffffffffff16021790555061063f83604051806040016040529081600082018054806020026020016040519081016040528092919081815260200182805480156105db57602002820191906000526020600020905b8160009054906101000a900473ffffffffffffffffffffffffffffffffffffffff1673ffffffffffffffffffffffffffffffffffffffff1681526020019060010190808311610591575b505050505081526020016001820160009054906101000a900473ffffffffffffffffffffffffffffffffffffffff1673ffffffffffffffffffffffffffffffffffffffff1673ffffffffffffffffffffffffffffffffffffffff1681525050610c63565b60666000815480929190610652906113f9565b9190505550505050565b610664610c5b565b73ffffffffffffffffffffffffffffffffffffffff16610682610a76565b73ffffffffffffffffffffffffffffffffffffffff16146106d8576040517f08c379a00000000000000000000000000000000000000000000000000000000081526004016106cf906111f4565b60405180910390fd5b60006067600060665481526020019081526020016000206040518060400160405290816000820180548060200260200160405190810160405280929190818152602001828054801561077f57602002820191906000526020600020905b8160009054906101000a900473ffffffffffffffffffffffffffffffffffffffff1673ffffffffffffffffffffffffffffffffffffffff1681526020019060010190808311610735575b505050505081526020016001820160009054906101000a900473ffffffffffffffffffffffffffffffffffffffff1673ffffffffffffffffffffffffffffffffffffffff1673ffffffffffffffffffffffffffffffffffffffff1681525050905060005b816000015151811015610896578160000151818151811061082d577f4e487b7100000000000000000000000000000000000000000000000000000000600052603260045260246000fd5b602002602001015173ffffffffffffffffffffffffffffffffffffffff166108fc670de0b6b3a76400009081150290604051600060405180830381858888f19350505050158015610882573d6000803e3d6000fd5b50808061088e906113f9565b9150506107e3565b50606660008154809291906108aa906113f9565b919050555050565b6108ba610c5b565b73ffffffffffffffffffffffffffffffffffffffff166108d8610a76565b73ffffffffffffffffffffffffffffffffffffffff161461092e576040517f08c379a0000000000000000000000000000000000000000000000000000000008152600401610925906111f4565b60405180910390fd5b6109386000610d4f565b565b600060019054906101000a900460ff166109625760008054906101000a900460ff161561096b565b61096a610e15565b5b6109aa576040517f08c379a00000000000000000000000000000000000000000000000000000000081526004016109a1906111d4565b60405180910390fd5b60008060019054906101000a900460ff1615905080156109fa576001600060016101000a81548160ff02191690831515021790555060016000806101000a81548160ff0219169083151502179055505b610a02610e26565b610a0a610a76565b606560006101000a81548173ffffffffffffffffffffffffffffffffffffffff021916908373ffffffffffffffffffffffffffffffffffffffff16021790555060016066819055508015610a735760008060016101000a81548160ff0219169083151502179055505b50565b6000603360009054906101000a900473ffffffffffffffffffffffffffffffffffffffff16905090565b670de0b6b3a76400003414610ab457600080fd5b606760006066548152602001908152602001600020600001610ad4610c5b565b9080600181540180825580915050600190039060005260206000200160009091909190916101000a81548173ffffffffffffffffffffffffffffffffffffffff021916908373ffffffffffffffffffffffffffffffffffffffff160217905550565b6000606654905090565b600060676000838152602001908152602001600020600001805490509050919050565b610b6b610c5b565b73ffffffffffffffffffffffffffffffffffffffff16610b89610a76565b73ffffffffffffffffffffffffffffffffffffffff1614610bdf576040517f08c379a0000000000000000000000000000000000000000000000000000000008152600401610bd6906111f4565b60405180910390fd5b600073ffffffffffffffffffffffffffffffffffffffff168173ffffffffffffffffffffffffffffffffffffffff161415610c4f576040517f08c379a0000000000000000000000000000000000000000000000000000000008152600401610c46906111b4565b60405180910390fd5b610c5881610d4f565b50565b600033905090565b600047905060006064600283610c7991906112e0565b610c8391906112af565b905060008183610c93919061133a565b9050606560009054906101000a900473ffffffffffffffffffffffffffffffffffffffff1673ffffffffffffffffffffffffffffffffffffffff166108fc839081150290604051600060405180830381858888f19350505050158015610cfd573d6000803e3d6000fd5b50836020015173ffffffffffffffffffffffffffffffffffffffff166108fc829081150290604051600060405180830381858888f19350505050158015610d48573d6000803e3d6000fd5b5050505050565b6000603360009054906101000a900473ffffffffffffffffffffffffffffffffffffffff16905081603360006101000a81548173ffffffffffffffffffffffffffffffffffffffff021916908373ffffffffffffffffffffffffffffffffffffffff1602179055508173ffffffffffffffffffffffffffffffffffffffff168173ffffffffffffffffffffffffffffffffffffffff167f8be0079c531659141344cd1fd0a4f28419497f9722a3daafe3b4186f6b6457e060405160405180910390a35050565b6000610e2030610e7f565b15905090565b600060019054906101000a900460ff16610e75576040517f08c379a0000000000000000000000000000000000000000000000000000000008152600401610e6c90611214565b60405180910390fd5b610e7d610ea2565b565b6000808273ffffffffffffffffffffffffffffffffffffffff163b119050919050565b600060019054906101000a900460ff16610ef1576040517f08c379a0000000000000000000000000000000000000000000000000000000008152600401610ee890611214565b60405180910390fd5b610f01610efc610c5b565b610d4f565b565b600081359050610f12816115f1565b92915050565b600081519050610f2781611608565b92915050565b600081359050610f3c8161161f565b92915050565b600060208284031215610f5457600080fd5b6000610f6284828501610f03565b91505092915050565b600060208284031215610f7d57600080fd5b6000610f8b84828501610f18565b91505092915050565b600060208284031215610fa657600080fd5b6000610fb484828501610f2d565b91505092915050565b6000610fc98383610fd5565b60208301905092915050565b610fde81611380565b82525050565b610fed8161136e565b82525050565b6000610ffe8261125f565b6110088185611282565b93506110138361124f565b8060005b8381101561104457815161102b8882610fbd565b975061103683611275565b925050600181019050611017565b5085935050505092915050565b600061105c8261126a565b6110668185611293565b93506110768185602086016113c6565b80840191505092915050565b600061108f60268361129e565b915061109a826114db565b604082019050919050565b60006110b2602e8361129e565b91506110bd8261152a565b604082019050919050565b60006110d560208361129e565b91506110e082611579565b602082019050919050565b60006110f8602b8361129e565b9150611103826115a2565b604082019050919050565b611117816113bc565b82525050565b61112e611129826113bc565b611442565b82525050565b60006111408284611051565b915081905092915050565b6000611157828561111d565b602082019150611167828461111d565b6020820191508190509392505050565b600060208201905061118c6000830184610fe4565b92915050565b600060208201905081810360008301526111ac8184610ff3565b905092915050565b600060208201905081810360008301526111cd81611082565b9050919050565b600060208201905081810360008301526111ed816110a5565b9050919050565b6000602082019050818103600083015261120d816110c8565b9050919050565b6000602082019050818103600083015261122d816110eb565b9050919050565b6000602082019050611249600083018461110e565b92915050565b6000819050602082019050919050565b600081519050919050565b600081519050919050565b6000602082019050919050565b600082825260208201905092915050565b600081905092915050565b600082825260208201905092915050565b60006112ba826113bc565b91506112c5836113bc565b9250826112d5576112d46114ac565b5b828204905092915050565b60006112eb826113bc565b91506112f6836113bc565b9250817fffffffffffffffffffffffffffffffffffffffffffffffffffffffffffffffff048311821515161561132f5761132e61147d565b5b828202905092915050565b6000611345826113bc565b9150611350836113bc565b9250828210156113635761136261147d565b5b828203905092915050565b60006113798261139c565b9050919050565b600061138b8261139c565b9050919050565b6000819050919050565b600073ffffffffffffffffffffffffffffffffffffffff82169050919050565b6000819050919050565b60005b838110156113e45780820151818401526020810190506113c9565b838111156113f3576000848401525b50505050565b6000611404826113bc565b91507fffffffffffffffffffffffffffffffffffffffffffffffffffffffffffffffff8214156114375761143661147d565b5b600182019050919050565b6000819050919050565b6000611457826113bc565b9150611462836113bc565b925082611472576114716114ac565b5b828206905092915050565b7f4e487b7100000000000000000000000000000000000000000000000000000000600052601160045260246000fd5b7f4e487b7100000000000000000000000000000000000000000000000000000000600052601260045260246000fd5b7f4f776e61626c653a206e6577206f776e657220697320746865207a65726f206160008201527f6464726573730000000000000000000000000000000000000000000000000000602082015250565b7f496e697469616c697a61626c653a20636f6e747261637420697320616c72656160008201527f647920696e697469616c697a6564000000000000000000000000000000000000602082015250565b7f4f776e61626c653a2063616c6c6572206973206e6f7420746865206f776e6572600082015250565b7f496e697469616c697a61626c653a20636f6e7472616374206973206e6f74206960008201527f6e697469616c697a696e67000000000000000000000000000000000000000000602082015250565b6115fa8161136e565b811461160557600080fd5b50565b61161181611392565b811461161c57600080fd5b50565b611628816113bc565b811461163357600080fd5b5056fea26469706673582212208a2f40827401bdf4140b9c7c441c5e3402ed16a60114d5e1279e45b6e2ade2af64736f6c63430008020033",
  "immutableReferences": {},
  "source": "// SPDX-License-Identifier: MIT\r\npragma solidity ^0.8.0;\r\n\r\nimport \"@openzeppelin/contracts-upgradeable/access/OwnableUpgradeable.sol\";\r\n\r\ncontract Lottery is OwnableUpgradeable {\r\n    // \r\n    address payable manager;\r\n\r\n    // \r\n    struct LotteryData {\r\n        // \r\n        address payable[] players;\r\n        // \r\n        address payable winner;\r\n    }\r\n\r\n    // \r\n    uint round;\r\n    // \r\n    mapping(uint => LotteryData) LotteryDatas;\r\n\r\n    function initialize() public initializer {\r\n        __Ownable_init();\r\n\r\n        manager = payable(owner());\r\n        round = 1;\r\n    }\r\n\r\n    /*\r\n     * \r\n     */\r\n    function play() payable public {\r\n        require(msg.value == 1 ether);\r\n        LotteryDatas[round].players.push(payable(_msgSender()));\r\n    }\r\n\r\n    /*\r\n     * \r\n     */\r\n    function runLottery() public onlyOwner {\r\n        LotteryData storage data = LotteryDatas[round];\r\n\r\n        // 2\r\n        require(data.players.length > 1);\r\n\r\n        // \r\n        uint v = uint(sha256(abi.encodePacked(block.timestamp, data.players.length)));\r\n        // data.players.length\r\n        uint index = v % data.players.length;\r\n\r\n        data.winner = data.players[index];\r\n\r\n        dividePrizePool(data);\r\n\r\n        round++;\r\n    }\r\n\r\n    /*\r\n     * \r\n     */\r\n    function dividePrizePool(LotteryData memory _data) private {\r\n        // \r\n        uint totalAmount = address(this).balance;\r\n\r\n        // 2%\r\n        uint managerDivide = totalAmount * 2 / 100;\r\n        // 98%\r\n        uint winnerDivide = totalAmount - managerDivide;\r\n\r\n        manager.transfer(managerDivide);\r\n        _data.winner.transfer(winnerDivide);\r\n    }\r\n\r\n    /*\r\n     * \r\n     */\r\n    function refund() public onlyOwner {\r\n        LotteryData memory data = LotteryDatas[round];\r\n\r\n        for (uint i = 0; i < data.players.length; i++) {\r\n            data.players[i].transfer(1 ether);\r\n        }\r\n\r\n        round++;\r\n    }\r\n\r\n    /*\r\n     * \r\n     */\r\n    function getBalance() public view returns (uint) {\r\n        return address(this).balance;\r\n    }\r\n\r\n    /*\r\n     * \r\n     */\r\n    function getPlayersCount(uint _round) public view returns (uint) {\r\n        return LotteryDatas[_round].players.length;\r\n    }\r\n\r\n    /*\r\n     * \r\n     */\r\n    function getPlayers(uint _round) public view returns (address payable[] memory) {\r\n        return LotteryDatas[_round].players;\r\n    }\r\n\r\n    /*\r\n     * \r\n     */\r\n    function getWinner(uint _round) public view returns (address) {\r\n        return LotteryDatas[_round].winner;\r\n    }\r\n\r\n    /*\r\n     * \r\n     */\r\n    function getRound() public view returns (uint) {\r\n        return round;\r\n    }\r\n}\r\n",
  "sourcePath": "E:\\BlockChain\\Solidity\\Project\\StudyTest\\Src\\Truffle\\truffle-lottery\\truffle-simplelottery\\contracts\\Lottery.sol",
  "compiler": {
    "name": "solc",
    "version": "0.8.2+commit.661d1103.Emscripten.clang"
  },
  "schemaVersion": "3.4.6",
  "updatedAt": "2022-04-04T04:01:26.814Z",
  "networkType": "ethereum",
  "devdoc": {
    "kind": "dev",
    "methods": {
      "owner()": {
        "details": "Returns the address of the current owner."
      },
      "renounceOwnership()": {
        "details": "Leaves the contract without owner. It will not be possible to call `onlyOwner` functions anymore. Can only be called by the current owner. NOTE: Renouncing ownership will leave the contract without an owner, thereby removing any functionality that is only available to the owner."
      },
      "transferOwnership(address)": {
        "details": "Transfers ownership of the contract to a new account (`newOwner`). Can only be called by the current owner."
      }
    },
    "version": 1
  },
  "userdoc": {
    "kind": "user",
    "methods": {},
    "version": 1
  }
}